10112345678   0910000190909140528A094101WELLS FARGO            WELLS FARGO BANK               
9000000000001000000000000000000000000000000000000000000                                       
